:020000040800F2
:1000000000500020312D0008912D0008912D00088E
:10001000912D0008912D0008912D0008000000008E
:10002000000000000000000000000000912D00080A
:10003000912D000800000000912D00080323000806
:10004000912D0008912D0008912D0008912D000898
:10005000912D0008912D0008E5230008EB230008EE
:10006000F1230008F7230008FD230008912D000864
:10007000912D0008912D0008912D0008912D000868
:10008000912D0008912D0008912D0008912D000858
:10009000912D0008912D0008912D000803240008DF
:1000A000912D0008391F0008912D00084D1F0008F0
:1000B000511F0008651F0008791F0008912D0008D6
:1000C000912D0008912D0008912D0008912D000818
:1000D000912D00088D2C0008A52C0008C12C0008CB
:1000E00019240008912D0008912D0008000000003F
:1000F0000000000000000000000000000000000000
:0C01000000000000000000005FF808F1A3
:10010C0053B94AB9002908BF00281CBF4FF0FF3172
:10011C004FF0FF3000F00CB8ADF1080C6DE904CED7
:10012C0003F002FBDDF804E0DDE9022304B07047C4
:10013C00704700BF10B5054C237833B9044B13B18D
:10014C000448AFF300800123237010BDB8000020D9
:10015C0000000000103A000808B5034B1BB103491E
:10016C000348AFF3008008BD00000000BC00002075
:10017C00103A0008002310B5054AFFF7C1FF054CE3
:10018C00206003F02FF92368034A0344136010BD69
:10019C0040420F00D8000020DC00002010B5054CB8
:1001AC0003F020F922689042FAD3034B1B681344E6
:1001BC00236010BDDC000020D800002008B500F042
:1001CC007DFA00F01FF800F0BDFA034BD3E90001F3
:1001DC00BDE80840FFF7CEBF0000002008B500F0D6
:1001EC0087FA074B1868421C1A6000F00DF800F0F3
:1001FC0095FA00F0B1FABDE80840FFF7CFBF00BF99
:10020C00D400002000F046BA00F04EBA30B5D0E968
:10021C0000120C4C0C4DA24203DB002905DD002A18
:10022C0003DA01392A4401604260D0E90023AB4271
:10023C0003DC002A05DA002B03DD013223440260C3
:10024C00436030BD003665C400CA9A3B08B483B025
:10025C0005A9DDE903300191DDE9052193420CBFCD
:10026C00401A981A0028CCBF0020012003B001B01E
:10027C0070470000464B30B51D68002399420CBFF7
:10028C001A460422012190F90440056014430471BC
:10029C002B70447AC0E9043314434472C47AC0E925
:1002AC0008331443C472447B017214434473047EB8
:1002BC00817214430476447F03731443447790F89B
:1002CC0028400377144380F8284090F82D4080F89C
:1002DC002C30144380F82D4090F82F4080F82E30AD
:1002EC00144380F82F40C0E90C3380F8481080F894
:1002FC004A1090F84B1090F83840114380F84B108E
:10030C0090F84D101443114380F84D1090F858108C
:10031C0080F83840114380F8581090F85D1090F830
:10032C004440114380F85D1090F868101443114359
:10033C0080F8681090F86D1080F84440114390F8E4
:10034C00494080F86D1090F86F1014431143C0E9C8
:10035C000F33C0E91433C0E9183380F84C3080F8FF
:10036C005C3080F86C3080F86E3080F8494080F852
:10037C006F1090F87810C0E91C33C0E91F3390F867
:10038C00843011431A4380F8781080F8842030BDF3
:10039C0018000020F0B5437A04469A075CBF01238D
:1003AC000372437B8BB09B0709D403799F0756BF1D
:1003BC00036843791B78B3FA83F35B090373237ED9
:1003CC00227A13F0020302BF2361A44B6361E37A28
:1003DC0003F0020362BB03B9A37294F849309D0782
:1003EC005CBFA37A84F8483094F84D3094F84820D8
:1003FC0098075CBF237F84F84C3094F8583013F086
:10040C00020302BF2365954B636594F84B3003F0F0
:10041C000203002A40F09D800BB984F84A302379FE
:10042C009B0703D4236894F85C201A700BB0F0BDC2
:10043C000BB90123A37294F838309E075FBF884A2A
:10044C0004F13003D2E90001C3E90001E26A237B25
:10045C0012F0FF1F17D1BBB194F82D309D075CBF74
:10046C00012384F82C30637F13F0020308BF237739
:10047C0094F8443098071AD4D4E90C0104F13C03E5
:10048C0083E8030013E0D3B994F8283013F0020387
:10049C0008BFC4E90833637F13F0020308BF237756
:1004AC0094F82D3013F0020301D184F82C3094F819
:1004BC002F309E075CBF237B84F82E308DE794F998
:1004CC002C60012EF3D1D4E90423216CE06B08AD30
:1004DC0002440B44284608920993FFF797FE95E8CF
:1004EC00030004AB83E80300D4E90C0101AB83E8FF
:1004FC000300059B022200930021049B3046FFF76A
:10050C00A5FE94F8283090B194F82D2091075CBF8B
:10051C00022284F82C20627F92075CBF0122227792
:10052C009B07C4D4D4E9040104F12003A8E79F0776
:10053C00BDD4E06B636B216C226B5B1A121A2846DC
:10054C0009930892FFF762FE089B2362099B636282
:10055C00ADE713B9012384F84A3094F87830990741
:10056C005FBF3F4A04F17003D2E90001C3E9000107
:10057C0094F96C7094F84C50BFB994F86E30002B11
:10058C0000F0858095B994F86D309A075CBF012313
:10059C0084F86C3094F884309B0715D4D4E91C0192
:1005AC0004F17C0383E803000EE02DB394F868306B
:1005BC0013F0020308BFC4E9183394F86D3013F03C
:1005CC00020301D184F86C3094F85D3098070AD49A
:1005DC0094F84C30002B58D194F96C30591E4B4286
:1005EC004B4184F85C3094F86F309A075CBF94F8F8
:1005FC004C3084F86E3012E7012FE5D1D4E9142386
:10060C00D4F88010E06F08AE02440B4430460892D8
:10061C000993FFF7FBFD96E8030006AB83E80300A4
:10062C00D4E91C0101AB83E80300079B0222009371
:10063C002946069B3846FFF709FE94F8683088B1C6
:10064C0094F86D2097075CBF022284F86C209E07FB
:10065C00BAD4D4E9140104F16003A3E70065CD1DFD
:10066C006C0100209D07AFD4E06F636FD4F880104D
:10067C00226F5B1A121A304609930892FFF7C6FDD7
:10068C00089B2366099B63669EE70123A9E7002D5F
:10069C009AD08BE70021024B02481970FFF7EABD94
:1006AC0068010020E00000200122024B02481A7071
:1006BC00FFF770BE68010020E000002038B5002470
:1006CC00094D002115F8010B013402F0F1FD052C48
:1006DC00F7D10024054D012115F8010B013402F06E
:1006EC00E7FD082CF7D138BD080000200D000020D4
:1006FC0070B50024074D084E55F8043B33B1305DFE
:10070C0002F0C0FD55F8043C000118800134052CA2
:10071C00F2D170BD580200200800002070B50024F2
:10072C00064D074E55F8043B1BB11978305D02F0AD
:10073C001DFE0134082CF5D170BD00BF78010020DE
:10074C000D000020024B1A68024BDA61704700BFA3
:10075C001800002078010020084B094A59681268DB
:10076C000A4408498A42C9BF07495A6089181A685D
:10077C00C2BF596001321A60704700BF6C01002083
:10078C0000000020FFC99A3B003665C4704700008A
:10079C0038B50E4B054618784FF47A73B3FBF0F36B
:1007AC000B4A1068B0FBF3F000F0FCFB044658B9A0
:1007BC000F2D09D8024629464FF0FF3000F09EFB62
:1007CC002046044B1D6038BD0120FCE71C000020B6
:1007DC004400002020000020074A08B513680320BD
:1007EC0043F01003136000F077FB0020FFF7D0FFFD
:1007FC00FFF7CCFF002008BD00200240034A044B49
:10080C0011681B780B441360704700BFD80200209E
:10081C001C000020014B1868704700BFD802002054
:10082C00F7B5002604460D460196FFF7F3FF236843
:10083C0007469A68D20508D50120A36A84F824607B
:10084C0043F02003A36203B0F0BD5A68D60503D46D
:10085C00DB6A13F4700F3FD0414B02201E6800F08E
:10086C0047FF23683F4A1969B6FBF0F611423E4A2E
:10087C0053D1D8683D4908424FD1196911425DD115
:10088C00DA683B4B1A4214BF292314235E43019BA5
:10089C00B34225D26A1C5CD0002D55D1019BB342CA
:1008AC0057D2A36A43F00403A36200230BE0681C35
:1008BC0013D065B923681B6813F002030CD1A26A2C
:1008CC0042F00402A262032084F82430BBE7FFF755
:1008DC00A1FFC01BA842EDD8226813689907E6D582
:1008EC006FF0120322681360A36A43F40073A362CF
:1008FC00936803F46023B3F5602F2ED1207B00287E
:10090C002BD1A36A23F48073A362A36ADB0424D4DF
:10091C00A36A43F00103A36295E71969114203D15D
:10092C00D968134A11420BD01969124A114209D1E4
:10093C00DB68134214BFFC235423A7E72923A5E744
:10094C005423A3E7FC23A1E7FFF764FFC01BA842D5
:10095C00A4D8019B0133019399E7002073E700BFF2
:10096C0044000020244992249224491224499200E4
:10097C0092244900499224000368D86C7047000007
:10098C00002373B5019390F824300446012B6CD0EE
:10099C00012380F824304D680268062D086805EBA9
:1009AC00850322D81F26556B053B9E4025EA06057C
:1009BC0000FA03F32B43536309288B6800EB4005C3
:1009CC004FF0070129D9D6681E3DA94026EA01013E
:1009DC00AB400B43D360A0F11003012B25D90020B1
:1009EC00002384F8243002B070BD0C2D4FF01F058D
:1009FC0009D8166B233B9D4026EA050500FA03F344
:100A0C002B431363D8E7D66A413B9D4026EA050584
:100A1C0000FA03F32B43D362CEE71069A94020EA16
:100A2C000101AB400B431361D9E7114B9A4216D12C
:100A3C0093681B02D3D49368102843F4000393608B
:100A4C00CDD10C4B0C4A1B68B3FBF2F30A22534377
:100A5C000193019B002BC2D0019B013BF8E7A36AD9
:100A6C00012043F02003A362BAE70220BBE700BFDA
:100A7C00002401404400002040420F00806A70476F
:100A8C00002337B50193036804469A68D20702D550
:100A9C00002003B030BD9A6842F001029A60144BFA
:100AAC00144A1B68B3FBF2F30193019BE3B9FFF704
:100ABC00B1FE054623689B68DB07E9D4FFF7AAFE65
:100ACC00401B0228F6D923689B6813F00103F1D16F
:100ADC00A26A012042F01002A262E26A84F8243079
:100AEC0042F00102E262D4E7019B013BDCE700BF6C
:100AFC004400002040420F0010B590F8243004460A
:100B0C00012B54D0012380F82430FFF7B9FF0028C3
:100B1C0049D1A36A274A23F4407323F0010343F419
:100B2C008073A3622368934204D123494A6812F468
:100B3C00702F2ED1A26A22F48012A2625A6852053A
:100B4C0041BFA26A22F4405242F48052A262A26ACD
:100B5C0012F480521CBFE26A22F00602E26200220A
:100B6C0084F824206FF002021A609A6802F4602262
:100B7C00B2F5602F13D10F4A934205D1A2F58062D2
:100B8C00526812F4702F0AD19A6842F4A0029A604B
:100B9C0010BDA26A42F48012A2624A68CFE79A683A
:100BAC0042F48012F3E7002384F82430F0E70220AB
:100BBC00EEE700BF002801400024014038B503686F
:100BCC0004469A68D10701D4002038BD9A6822F0F7
:100BDC0001029A60FFF71EFE054623689B68DB073F
:100BEC00F2D5FFF717FE401B0228F6D923689B6845
:100BFC00DA07F2D5A36A012043F01003A362E36A7B
:100C0C0043F00103E362E0E7F8B5044600286ED038
:100C1C00836A23B9C36280F8243001F05DFA204660
:100C2C00FFF7CCFFA36A13F0100362D1002860D148
:100C3C00A26AE569616822F4885222F0020242F04D
:100C4C0002022943A568A262227BB5F5807F41EAA6
:100C5C00420137D0012D14BF00274FF48077267D39
:100C6C00012E06D182BBA269013A47EA423646F40C
:100C7C0000672268B5F5807F566826F4694646EA17
:100C8C000706566097681D4E06EA070646EA0106F7
:100C9C00966001D0012D02D12369013B1B05D56A59
:100CAC0025F470052B43D3629268154B134099427F
:100CBC0013D10023E362A36A23F0030343F001037F
:100CCC00A362F8BD2F46CAE7A26A42F02002A262D4
:100CDC00E26A42F00102E262CBE7A36A23F012035C
:100CEC0043F01003A362E36A43F00103E3620120C3
:100CFC00E7E7A36A43F01003A362F8E7FDF7E1FF0F
:100D0C00FE0E1FFF38B50446002850D0836A43F00E
:100D1C0002038362FFF752FF0546002842D16FF0B1
:100D2C001F02236823481A605968234A0A405A60F4
:100D3C009968224A0A409A60DA6802F07F42DA60C7
:100D4C001A6902F040421A6159691D4A11405961F1
:100D5C00996911409961D9691140D961196A114099
:100D6C001962596A11405962996A0A409A62DA6AA0
:100D7C0002F07F42DA62DA6A02F07F42DA621A6BC0
:100D8C0002F040421A635A6B02F040425A63996B6C
:100D9C00014099639A6B02409A63204601F0CEF9A8
:100DAC00E562A562002384F82430284638BD01256D
:100DBC00FBE700BF0000C0FF00003FFFF00601FF93
:100DCC0000F0FFFF10B590F824300446012B11D031
:100DDC00012380F82430FFF7F1FE38B9A36A23F41D
:100DEC00885323F0010343F00103A362002384F82A
:100DFC00243010BD0220FCE7002373B5019390F85A
:100E0C0024300446012B62D0012380F82430FFF7F4
:100E1C00D5FE0546002832D1A36A022023F488535C
:100E2C0023F0020343F00203A3622A4B1E6800F076
:100E3C005FFCB6FBF0F676000196019B1BBB2046CF
:100E4C00FFF71EFE2268936843F008039360FFF7D8
:100E5C00E1FC064623689A68110718D49A6842F098
:100E6C0004029A60FFF7D6FC064623689B685B0772
:100E7C0023D4A36A23F0030343F00103A3620023EA
:100E8C0084F8243016E0019B013B0193D5E7FFF772
:100E9C00C1FC801B0A28DDD923689B681807D9D5AB
:100EAC00A36A012523F0120343F01003A36200236D
:100EBC0084F82430284602B070BDFFF7ABFC801BD1
:100ECC000A28D2D923689B685A07CED5E8E70225B1
:100EDC00F0E700BF4400002007490302CA6803F48E
:100EEC00E06322F4E0621204120C134343F0BF637C
:100EFC0043F40033CB60704700ED00E0164B30B587
:100F0C00DC68C4F30224C4F10703251D042B28BF9D
:100F1C000423062D4FF0FF3598BF002405FA03F388
:100F2C0088BF033C21EA0303A34005FA04F422EA38
:100F3C000402002843EA0203ACBF00F16040074AF8
:100F4C004FEA0313DBB2ABBF00F5614000F00F00BA
:100F5C0080F80033135430BD00ED00E014ED00E0D8
:100F6C00002808DB0123420900F01F0003FA00F0FF
:100F7C00014B43F82200704700E100E000280DDB34
:100F8C000122430900F01F0002FA00F0044A20334A
:100F9C0042F82300BFF34F8FBFF36F8F704700BF32
:100FAC0000E100E00138B0F1807F0BD24FF0E0237C
:100FBC00F021054A586182F823100020072298611D
:100FCC001A6170470120704700ED00E0002809DB32
:100FDC000122430900F01F0002FA00F0024A6033BC
:100FEC0042F82300704700BF00E100E0704708B5ED
:100FFC00FFF7FCFF08BD704710B5044650B14379AC
:10100C0003F0FF0213B90271FFF7F5FF0123002073
:10101C00637110BD0120FCE790F82130022B06D043
:10102C0004238363002380F8203001207047036879
:10103C001A6822F00E021A601A6822F001021A6075
:10104C000123D0E90F218B4053604FF4807303844C
:10105C000020704708B590F82130022B03D00423F0
:10106C008363012008BD03681A6822F00E021A601F
:10107C001A6822F001021A60174A93421CD01432EB
:10108C0093421BD0143293421AD0143293421AD08A
:10109C00143293421AD0143293420CBF4FF4801383
:1010AC004FF080730D4A53604FF480730384436B8D
:1010BC007BB198470020D5E70123F3E71023F1E734
:1010CC004FF48073EEE74FF48053EBE74FF480332B
:1010DC00E8E71846C6E700BF0800024000000240DF
:1010EC00044A08B55169014202D0506101F05EF921
:1010FC0008BD00BF000401402DE9F341054638B39B
:10110C000368DB0710D42B689F075ED42B68190784
:10111C0000F195802B685A0700F1C180E86900281E
:10112C0040F02C81002029E0904C636803F00C0304
:10113C00042B07D0636803F00C03082B0AD16368F7
:10114C00DE0307D523689C03DDD56B68002BDAD151
:10115C00012013E06B68B3F5803F12D1236843F490
:10116C0080332360FFF756FB064623689803CAD4E6
:10117C00FFF750FB801B6428F7D9032002B0BDE8B1
:10118C00F0819BB9236823F480332360236823F414
:10119C0080232360FFF73EFB064623689903B2D5F4
:1011AC00FFF738FB801B6428F7D9E6E7B3F5A02FCF
:1011BC00236803D143F480232360CFE723F48033E7
:1011CC002360236823F48023CBE7684C636813F017
:1011DC000C0F07D0636803F00C03082B10D1636865
:1011EC00DA030DD423689B0702D52B69012BAFD1F1
:1011FC0023686A6923F0F80343EAC203236085E796
:10120C002A695B4B6AB101221A60FFF703FB0646A1
:10121C0023689F07ECD4FFF7FDFA801B0228F7D94F
:10122C00ABE71A60FFF7F6FA0646236898077FF5D6
:10123C006DAFFFF7EFFA801B0228F6D99DE7AA697C
:10124C004A4E4B4BE2B10122C3F88024FFF7E2FA7D
:10125C000446736A9B070DD54FF4FA52454B1B6835
:10126C00B3FBF2F3019300BF019B5A1E0192002BBA
:10127C00F9D14FE7FFF7CEFA001B0228E9D97CE73A
:10128C00C3F88024FFF7C6FA0446736A9F077FF5FC
:10129C0041AFFFF7BFFA001B0228F6D96DE7334CBC
:1012AC00E369D80024D40127E36943F08053E36158
:1012BC00E36903F080530093009B2F4E3368D905EC
:1012CC0018D5EB68012B26D1236A43F00103236266
:1012DC00FFF7A0FA41F288380646236A9B073FD5F0
:1012EC00002F3FF41BAFE36923F08053E36115E754
:1012FC000027E2E7336843F480733360FFF78AFA20
:10130C0080463368DA05DCD4FFF784FAA0EB0800DA
:10131C006428F6D931E7ABB9236A41F2883823F057
:10132C0001032362236A23F004032362FFF772FA9A
:10133C000646236A9807D3D5FFF76CFA801B404505
:10134C00F7D91AE7052B236A03D143F00403236270
:10135C00BAE723F001032362236A23F00403B6E700
:10136C00FFF758FA801B4045B7D906E7001002403A
:10137C000000424244000020007000402A4C636888
:10138C0003F00C03082B3ED00022284B02281A66CF
:10139C002CD1FFF73FFA06462368990120D42B6A1B
:1013AC00B3F5803F05D16268A96822F400320A4384
:1013BC006260696A62680B4322F47412134301225F
:1013CC0063601A4B1A66FFF725FA054623689A01E3
:1013DC003FF5A8AEFFF71EFA401B0228F6D9CCE663
:1013EC00FFF718FA801B0228D6D9C6E6FFF712FAC7
:1013FC00054623689B017FF595AEFFF70BFA401B62
:10140C000228F6D9B9E601283FF4B8AE63682A6A17
:10141C0003F4803191427FF49BAE6A6A03F470133B
:10142C0093423FF47FAE93E600100240000042422C
:10143C0030B5184B87B002AC03F110052246186882
:10144C005968083303C2AB421446F7D140F201236A
:10145C001149ADF804304B6803F00C02082A17D17F
:10146C00C3F3834218326A44DB0312F8100C0CD518
:10147C004B680A4AC3F34043504318336B4413F888
:10148C00143CB0FBF3F007B030BD054B5843FAE702
:10149C000248F8E7283A00080010024000127A00CF
:1014AC0000093D002DE9F0410D46044610B901201C
:1014BC00BDE8F081444A136803F007038B4228D33C
:1014CC0021688E0730D4CA0743D43F4A136803F00F
:1014DC000703AB4265D822683C4D12F0040F6CD167
:1014EC00130706D56B68226923F4605343EAC203E1
:1014FC006B60FFF79DFF6B68354AC3F30313D35C36
:10150C00D840344B1860344B1868FFF741F9002071
:10151C00CEE7136823F007030B431360136803F043
:10152C0007038B42C3D1CBE7284B11F0040F1EBF2E
:10153C005A6842F4E0625A60080742BF5A6842F4A3
:10154C0060525A605A68A06822F0F00202435A6056
:10155C00B9E762681D4E012A33681AD113F4003FB3
:10156C00A5D0736841F2883823F0030313437360EA
:10157C00FFF750F907467368626803F00C03B3EB8E
:10158C00820FA2D0FFF746F9C01B4045F3D90320C8
:10159C008EE7022A02D113F0007FE1E713F0020F6D
:1015AC00DEE7136823F007032B431360136803F083
:1015BC000703AB427FF47BAF8DE76B68E16823F4E4
:1015CC00E0630B436B608BE700200240001002408D
:1015DC007C3A00084400002020000020044B054AFF
:1015EC005B68C3F3C223D35C034A1068D8407047CE
:1015FC00001002408C3A00084400002003682DE9DA
:10160C00F341D907054620D5364CE369DA0032D4CC
:10161C000126E36943F08053E361E36903F08053EF
:10162C000193019B304F3B68DB0526D5236A13F4ED
:10163C00407336D1236A6A6823F4407313432362E0
:10164C001EB1E36923F08053E3612868830706D554
:10165C002449AB684A6822F440421A434A6010F0AD
:10166C0010001BD01F4AE9685368002023F4800344
:10167C000B43536012E00026D4E73B6843F48073BD
:10168C003B60FFF7C7F880463B68D805CED4FFF720
:10169C00C1F8A0EB08006428F6D9032002B0BDE81D
:1016AC00F0816A6802F440729A42C3D001200F4A5A
:1016BC00236AC2F84004002023F44071C2F84004AD
:1016CC002162D907B6D5FFF7A5F841F2883807464D
:1016DC00236A9A07AED4FFF79DF8C01B4045F7D993
:1016EC00DBE700BF001002400070004000004242E7
:1016FC00024670B5334B86B002AD03F110062C4692
:10170C0018685968083303C4B3422546F7D140F230
:10171C000123022AADF8043047D0102A03D0012A45
:10172C0024D0002036E0284A5168106810F08070F0
:10173C0030D0C1F3834318336B44C90313F8100C36
:10174C0049BF5368214BC3F34043183341BF6B442B
:10175C0013F8141C1E4BB3FBF1F3584353685B0294
:10176C0018D403234000B0FBF3F013E040F2023135
:10177C00154A136A1940B1F5817F1FD003F44073E9
:10178C00B3F5007F08D149F64043506A10F00200CF
:10179C0018BF184606B070BDB3F5407FC1D11068B4
:1017AC004FF2244310F40030F2E7FFF717FF064B1B
:1017BC005B68C3F3813301335B00D4E74FF4004023
:1017CC00E8E700BF283A00080010024000093D007D
:1017DC0000127A0070477047036810B51A69044606
:1017EC0091070ED5DA6892070BD56FF002021A61D9
:1017FC00012202779B699B0777D000F0F9FB00234D
:10180C00237723681A69500710D5DA6851070DD56C
:10181C006FF004021A61022222779B69204613F4AE
:10182C00407F68D000F0E4FB0023237723681A691B
:10183C0012070FD5DA6810070CD56FF008021A6181
:10184C0004222277DB69204699075AD000F0D0FB9E
:10185C000023237723681A69D20610D5DA68D006DC
:10186C000DD56FF010021A6108222277DB69204631
:10187C0013F4407F4BD000F0BBFB0023237723688D
:10188C001A69D10708D5DA68D20705D56FF00102BD
:10189C0020461A6100F089FB23681A69100608D5E6
:1018AC00DA68110605D56FF0800220461A6100F047
:1018BC009AF823681A69520608D5DA68500605D5D5
:1018CC006FF0400220461A61FFF785FF23681A6902
:1018DC00910622D5DA6892061FD56FF020022046B9
:1018EC00BDE810401A6100F07DB800F07FFB204687
:1018FC00FFF770FF83E700F079FB2046FFF76AFFE4
:10190C0092E700F073FB2046FFF764FFA0E700F0BE
:10191C006DFB2046FFF75EFFAFE710BD1A4A036868
:10192C0090420AD0B0F1804F07D0A2F59432904289
:10193C0003D002F58062904215D14A6823F07003FF
:10194C001343114A90420AD0B0F1804F07D0A2F550
:10195C009432904203D002F58062904203D1CA685F
:10196C0023F4407313434A6923F080031343036049
:10197C008B68C3620B688362034B984204BF0B698C
:10198C000363012343617047002C014010B50446EA
:10199C0030B390F83D3003F0FF021BB980F83C20C7
:1019AC0001F0A2F80223206884F83D30211DFFF7D6
:1019BC00B5FF0123002084F8463084F83E3084F8CB
:1019CC003F3084F8403084F8413084F8423084F859
:1019DC00433084F8443084F8453084F83D3010BDF1
:1019EC000120FCE7704770470368DA6822F49072B4
:1019FC00DA605A6922F001025A61026B012A02BFB5
:101A0C00DA6822F01002DA60202380F83E300023DE
:101A1C000363704790F83D30202B18D1A9B1A2B1C7
:101A2C0090F83C30012B12D0C284002382842122F6
:101A3C0001620168036480F83C3080F83D20CA687C
:101A4C00184642F08002CA6070470120704702209D
:101A5C00704708B50023406AC385C38401F0D2F8EF
:101A6C0008BD704707B58168836AB1F5805F02686D
:101A7C0034D10169002934D15268C2F3080223F829
:101A8C00022BC28D8362013A92B2C2851ABB0368E3
:101A9C00D96821F02001D960D96821F48071D9600E
:101AAC00596921F001015961202180F83E10016B28
:101ABC00012920D10263D96821F01001D96019687D
:101ACC00C90605D501921A6801925B680193019BC6
:101ADC00818DFFF7C6FF03B05DF804FB39B90169CE
:101AEC0029B95268D2B21A70836A0133C9E75268B5
:101AFC0002F07F02F7E701F07FF8ECE7036837B5F7
:101B0C001A68044612F00F0FD9685D690CD195065E
:101B1C0067D58D0665D590F83E30222B5BD103B08E
:101B2C00BDE83040FFF79EBF05F0010001F4907551
:101B3C00054356D0D50705D5CB0542BF236C43F0E2
:101B4C0001032364550704D518B1236C43F0020339
:101B5C002364930704D518B1236C43F00403236466
:101B6C00150707D501F0200303431EBF236C43F078
:101B7C0008032364236C73B3920608D58B0606D531
:101B8C0094F83E30222B02D12046FFF76BFF2368DE
:101B9C0020465B69256C03F0400305F008051D43E6
:101BAC001BD0FFF721FF23685A69550610D55A69D7
:101BBC00A06B22F040025A6150B1534B4363FFF7C4
:101BCC0049FA40B1A06B436B03B0BDE830401847F5
:101BDC00204601F017F803B030BD01F013F825646E
:101BEC00F9E7206B012855D1D00653D5CD0651D538
:101BFC00002101911A6801925A680192019A5A695E
:101C0C0012F040022AD0A06B0268526892B2002AED
:101C1C00E1D0A58D9542DED9E2858269202A15D0C6
:101C2C00DA6822F48072DA605A6922F001025A6191
:101C3C005A6922F040025A61202284F83E20216326
:101C4C00DA6822F01002DA60FFF7E6F9E38DA18D75
:101C5C00C91A89B22046FFF704FFBCE7E18D88B2B0
:101C6C00E18D89B20029B6D0A18D091A89B200295B
:101C7C00B1D0D86820F49070D860586920F0010079
:101C8C005861202084F83E002263DA6822F01002AA
:101C9C00DA60DFE7100626D50D0624D594F83D2032
:101CAC00212A98D1A168226AB1F5805F16D12169E9
:101CBC00A1B932F8021BC1F3080159602262E28C0F
:101CCC00013A92B2E284002A85D1DA6822F08002CD
:101CDC00DA60DA6842F04002DA607CE7511C21627B
:101CEC0012785A60EBE750067FF575AF4A067FF520
:101CFC0072AFDA68204622F04002DA60202384F8C2
:101D0C003D3000F07CFF66E75F1A000890F83C302D
:101D1C00012B11D02423026880F83D30D36823F0C6
:101D2C000C0343F00803D360202380F83D300023DC
:101D3C0080F83C30184670470220704790F83C30D1
:101D4C00012B11D02423026880F83D30D36823F096
:101D5C000C0343F00403D360202380F83D300023B0
:101D6C0080F83C30184670470220704790F83D20B0
:101D7C0090F83E0010437047C2858285816203460D
:101D8C0022220020186483F83C0083F83E201B6854
:101D9C00DA6842F48072DA605A6942F001025A61E0
:101DAC00DA6842F02002DA60704770B490F83E6056
:101DBC00202E10D161B15AB190F83C40012C0AD0C0
:101DCC00012480F83C400024046370BCFFF7D4BFAE
:101DDC00012070BC70470220FBE7836810B50446F5
:101DEC002BB10322014698470023C4E9023310BDEE
:101DFC00836810B5044613B1032201469847204668
:101E0C0010BD00000C4A034690420ED0B0F1804F3A
:101E1C000DD0A2F5943290420BD04FF6FF7002F524
:101E2C008062934208BF0320704700207047012056
:101E3C0070470220704700BF002C0140014670B56E
:101E4C00044651F8100FFFF7DDFF0546084600F079
:101E5C00DDFD0023084A04F1600642F82530E360FA
:101E6C0004F1B005B54204D0103D2846FFF7C0FF81
:101E7C00F8E7204670BD00BFDC020020F8B5044630
:101E8C000846FFF7BFFF4FF6FF73984200D1FEE7FD
:101E9C00236903B1FEE71C4D04F10C0245F8202028
:101EAC000E2204F110063046C4E90C33C4E90E339B
:101EBC00C4E91033C4E91623216184F82C30A364DF
:101ECC0084F84C3084F84D30E46000F05BFD04F194
:101EDC00600504F1B00728461035FFF77EFFBD42C0
:101EEC00F9D100234FF6FF72C4E90033C4E906327E
:101EFC00C4E90833A360636180233046A362BDE864
:101F0C00F840FFF743BD00BFDC020020002310B5F2
:101F1C00044683668367C0F88830C0F89830C0F8F0
:101F2C00A8300361FFF7AAFF204610BD034B1868C9
:101F3C0010B10430FFF750BC704700BFDC0200202A
:101F4C00FFF7F4BF034B586810B10430FFF744BCE3
:101F5C00704700BFDC020020034B986810B10430BE
:101F6C00FFF73ABC704700BFDC020020034BD86877
:101F7C0010B10430FFF730BC704700BFDC0200200A
:101F8C00826810B50AB901F039FDC368BDE810408C
:101F9C00184708B500B9FEE700F0F2FC0068836E44
:101FAC0013B16030FFF7ECFF08BDFFF7F2BF10B5BF
:101FBC0000B9FEE7037F013B072B10D8DFE803F0E5
:101FCC0014040F100F0F0F12022400F0D9FC00683C
:101FDC00063400EB041083680BB1FFF7D1FF10BD82
:101FEC000324F2E70424F0E70124EEE7FFF7DFBF58
:101FFC00FFF7DDBF01F02CBA01F032BA86B004282D
:10200C0041D8DFE800F003101C2834001F4B204897
:10201C009A6942F004029A619B6903F004030193EC
:10202C00019B06B07047194B1A489A6942F0080296
:10203C009A619B6903F008030293029BF1E7134B2F
:10204C0015489A6942F010029A619B6903F01003DB
:10205C000393039BE5E70D4B10489A6942F020026D
:10206C009A619B6903F020030493049BD9E7074B07
:10207C000B489A6942F040029A619B6903F0400355
:10208C000593059BCDE70020CBE700BF0010024075
:10209C0000080140000C01400010014000140140F8
:1020AC000018014008B5044900F03EFCC0F3C430F0
:1020BC00112800D9FEE708BD943A000841F201034B
:1020CC00984204D041F20203984202D0FEE710205D
:1020DC0070471120704700000368134A82B0934286
:1020EC0011D1124B9A6942F400729A619B6903F404
:1020FC0000730093009B0E4B1868C30411D40D4958
:10210C0002B000F0D7BB0C4A9342F4D1074B9A694A
:10211C0042F480629A619B6903F480630193019B92
:10212C00E9E702B0704700BF0024014000100240F4
:10213C0038000020943A0008002801400368124A35
:10214C0093420DD1114BDA6842F40072DA60DA680E
:10215C0022F40072DA609A6922F400729A61704774
:10216C000B4A9342FBD1094BDA6842F48062DA6085
:10217C00DA6822F48062DA609A6922F480629A61E9
:10218C009A6922F48062E9E70024014000100240C1
:10219C0000280140F0B593B004463022002106A877
:1021AC0001F074F90023E204CDE903330593ADF893
:1021BC000630029357D541F202039C4253D8324B5E
:1021CC0020460693FFF77AFF0726054600230127D2
:1021DC004FF46022CDE907338DF824308DF82C3084
:1021EC000C9310930E938DF83C30284B06A80A974D
:1021FC000D921C60FEF708FD002840D1112D0395AF
:10220C003DD803A906A8CDE90476FEF7B9FB002852
:10221C0035D106A8FEF7F0FD002830D106A8FEF750
:10222C006BFC60BB0A2106A8FEF7FAFA38BB06A8BD
:10223C00FEF724FC830505D506A8FEF79DFB80B2AE
:10224C00ADF8060006A8FEF7BDFDC0B906A8FEF75E
:10225C0059FDA0B90C4A936823F400039360BDF8B0
:10226C00060080B20CE00A49204600F03BFB02A9B4
:10227C0006902046FFF716FF069B054613B9002073
:10228C0013B0F0BD0226A1E7002401403800002065
:10229C00943A0008F8B51449064600F023FBFFF702
:1022AC00B1FD124D044655F8203073B90E49304635
:1022BC0000F018FB0746B020FFF79CFE0646394697
:1022CC00FFF724FE55F824301E6055F824301C68A6
:1022DC0044B12046FFF7B2FD2046BDE8F840B021DE
:1022EC00FFF78ABEF8BD00BF903B0008DC0200205F
:1022FC00FEF790BA704708B5FEF780FAFEF777FE46
:10230C00FFF7F8FF08BD70470F4B84B0DA6942F055
:10231C008052DA61DA6902F080520192019A9A696C
:10232C0042F001029A619A6902F001020292029A49
:10233C005A6942F040025A615B6903F0400303930F
:10234C00039B04B0704700BF001002400C4BD3F845
:10235C00FC20D2015EBFD3F8FC2042F08072C3F89F
:10236C00FC200022074B5A601A6842F001021A60E6
:10237C0000BF00BF00BF5868B0FA80F0400970473A
:10238C0000ED00E0001000E008B5FFF7BDFFFFF71F
:10239C00DDFFFEF721FAFFF7B6FF00F0F5FCBDE814
:1023AC0008400148FEF728BE3C000020002301280D
:1023BC0003F1010202D013464008F8E71421DBB206
:1023CC004B43044A181D1044816811B113441B6916
:1023DC0018477047EC0200200120FEF781BE022056
:1023EC00FEF77EBE0420FEF77BBE0820FEF778BE0B
:1023FC001020FEF775BE38B505242025A8B2FEF7CF
:10240C006FFE013C4FEA4505F8D138BD38B50624BE
:10241C004FF48065A8B2FEF763FE013C4FEA450518
:10242C00F8D138BD0721204B06221975082183F8F5
:10243C002810092183F83C100A2183F85010172129
:10244C001A7083F86410002283F8781083F88C10CB
:10245C0083F8A01083F8B4102821DA601A625A634A
:10246C009A64DA651A67C3F88420C3F89820C3F815
:10247C00AC20C3F8C02083F8C810C3F8D42083F86C
:10248C00DC10C3F8E82083F8F010C3F8FC2083F8C4
:10249C000411C3F8102183F81811C3F8242183F810
:1024AC002C11C3F838217047EC02002038B5054CCC
:1024BC00A4F5A075143C201DFFF79AFCAC42F9D191
:1024CC0038BD00BF2C0400207B4B82B09A690138C8
:1024DC0042F001029A619B6903F001030193019B95
:1024EC0023282CD8DFE810F024002D0034003B000A
:1024FC00400047004C00530058005F0068006D001E
:10250C0074007D008200890092009B00A000A7004F
:10251C00B000B500BC002B002B002B00C100C80084
:10252C002B002B002B002B00CD00D200D900E0009B
:10253C00624A536843F0E06343F00103536002B016
:10254C0070475E4A536823F0010343F0E063F5E7FC
:10255C005A4A536843F0E06343F00203EEE7574AEC
:10256C00536823F00203F0E7544A536843F0E063E6
:10257C0043F00403E2E7514A536823F00403E4E711
:10258C004E4A536843F0E06343F00803D6E74B4AE6
:10259C00536823F00803D8E7484A536843F0E063D4
:1025AC0043F03003CAE7454A536823F0300343F045
:1025BC00E06343F01003C1E7404A536823F0300353
:1025CC00C3E73E4A536843F0E06343F0C003B5E70A
:1025DC003A4A536823F0C00343F0E06343F04003EE
:1025EC00ACE7364A536823F0C003AEE7334A53686E
:1025FC0043F0E06343F44073A0E7304A536823F49C
:10260C00407343F0E06343F4007397E72B4A53683D
:10261C0023F4407343F0E06343F480738EE7274A5E
:10262C00536823F4407390E7244A536843F0E06303
:10263C0043F4406382E7214A536823F4406343F038
:10264C00E06343F4006379E71C4A536823F4406366
:10265C007BE71A4A536843F0E06343F480536DE719
:10266C00164A536823F480536FE7144A536843F0B7
:10267C00E06343F4004361E7104A536823F40043DA
:10268C0063E70E4A536823F0E06357E70B4A53683D
:10269C0023F0E06343F0807350E7084A536823F05B
:1026AC00E06343F0007349E7044A536823F0E063A6
:1026BC0043F0806342E700BF00100240000001407D
:1026CC0091FAA1F3B3FA83F370B50D0E0F2691FABC
:1026DC00A1F1B1FA81F144599B0006FA03F3890088
:1026EC0024EA030402FA01F12143415170BD91FA2D
:1026FC00A1F3B3FA83F370B50D0E042691FAA1F190
:10270C00B1FA81F144599B0006FA03F3890024EADB
:10271C00030402FA01F12143415170BD431C04D062
:10272C000C3151F80C3C5A1C01D1002070478342EB
:10273C0001F10C01F5D1012070470000431C2DE97B
:10274C00F34106460F4600D1FEE7574B00F00F024F
:10275C00C0F3031001F0070853F82240FFF74EFCBA
:10276C00B8F1010F054643D194FAA4F3B3FA83F3FD
:10277C000321200E2A589B0001FA03F322EA0303DB
:10278C0094FAA4F2B2FA82F29200914001220B4325
:10279C002B502146284608F1FF38FFF791FFB8F17E
:1027AC00010F06D817F0080218BF04222146FFF7C4
:1027BC009EFF94FAA4F2230EE958B2FA82F39A001F
:1027CC000F23934094FAA4F2B2FA82F2C7F30117E2
:1027DC000B409200012F23FA02F321D0022F4AD092
:1027EC00082B30D1042221462846FFF769FF2AE046
:1027FC00C7F30620B8F1030F03D8DFE808F0050F84
:10280C000903FEE70022C4E7FFF75EFE0822C0E7DB
:10281C007F2801D0FFF758FE0922BAE74246B8E7F5
:10282C00042B04D1082221462846FFF749FFEA6809
:10283C00230A22EA142293FAA3F30124B3FA83F3B2
:10284C009C401443EC60194B9A6942F001029A6166
:10285C009B6903F001030193019BA6F10D03012B6E
:10286C0015D8134A536823F0E06343F08063536038
:10287C0002B0BDE8F081042B04D108222146284681
:10288C00FFF71EFFEB6823EA1423EB60DBE70F2E48
:10289C0002D0133E012EEBD8054A536823F0E063B7
:1028AC0043F00073E3E700BF3C3A0008001002401D
:1028BC0000000140431C06D17047834202D1896855
:1028CC00FFF73CBF0C310B685A1CF6D1FEE70B68C6
:1028DC005A1C01D100207047834201D148687047CF
:1028EC000C31F4E7431C01D0FFF7F1BF0020704717
:1028FC004B6813B94FF0FF307047834201D1086821
:10290C0070470C31F4E708B1FFF7F2BF4FF0FF301E
:10291C00704703460868421C00D17047984201D1A9
:10292C00886870470C31F5E7431C01D0FFF7F1BF05
:10293C00704700000F4B1A6842F001021A60596888
:10294C000D4A0A405A601A6822F0847222F48032CE
:10295C001A601A6822F480221A605A6822F4FE0265
:10296C005A604FF41F029A604FF00062034B9A605A
:10297C00704700BF001002400000FFF800ED00E0BF
:10298C000438704703681D4A84B093420BD11C4B2A
:10299C009A6942F400629A619B6903F400630093A4
:1029AC00009B04B07047B3F1804F10D0154A93428E
:1029BC0018D0154A9342F4D1114BDA6942F0040253
:1029CC00DA61DB6903F004030393039BE9E70C4B27
:1029DC00DA6942F00102DA61DB6903F00103019369
:1029EC00019BDEE7064BDA6942F00202DA61DB6931
:1029FC0003F002030293029BD3E700BF002C0140BB
:102A0C000010024000040040000800400368124A15
:102A1C00934206D102F56442936923F400639361F7
:102A2C007047B3F1804F06D00C4A934209D00C4A40
:102A3C0093420BD070470B4AD36923F00103D36147
:102A4C007047084AD36923F00203F8E7054AD369B3
:102A5C0023F00403F3E700BF002C01400004004006
:102A6C000008004000100240431C10D00C4B984250
:102A7C0010D007D8B0F1804F0ED0A3F580639842E8
:102A8C000CD0FEE7074B9842FBD1192070476FF032
:102A9C000D0070471E2070471C2070471D2070478A
:102AAC0000080040002C0140431C10D00C4B9842F5
:102ABC0010D007D8B0F1804F0ED0A3F580639842A8
:102ACC000CD0FEE7074B9842FBD11B2070476FF0F0
:102ADC000D0070471E2070471C2070471D2070474A
:102AEC0000080040002C014038B50446FFF74AFFAF
:102AFC000068FFF7B9FFD4E91212FEF7FFF920685E
:102B0C00FFF7B2FFFEF72CFA22681046FFF7CCFF56
:102B1C0005461046FFF7A8FF85420BD0D4E91212E8
:102B2C002846FEF7EBF92068FFF7BEFFBDE83840FA
:102B3C00FEF716BA38BD000008B5074B90F86120B7
:102B4C0053F82200FFF712F900F02200A0F1220343
:102B5C005842584108BD00BF2C04002008B5074B53
:102B6C0090F8612053F82200FFF700F900F02100E3
:102B7C00A0F121035842584108BD00BF2C0400208D
:102B8C0038B515460446B8B1C16490F96000FEF73B
:102B9C00F5F9B4F87230A16E9BB294F86100194447
:102BAC00064BAAB253F82000FEF734FF94F96000EC
:102BBC00BDE83840FEF7D4B938BD00BF2C04002066
:102BCC0048B1436D013306D190F86120024B53F8A4
:102BDC002200FFF79BB870472C04002048B1436DCE
:102BEC00013306D190F86120024B53F82200FFF715
:102BFC00A5B870472C040020436C04381847836C2C
:102C0C00043818471FB503680446186810F0010013
:102C1C0013D0002200921A6800925B680093009B0C
:102C2C00201FFFF789FF40BB0122204604F15E0103
:102C3C0004B0BDE81040FFF7B8B8196811F00201F4
:102C4C0006D001901A6801925B680193019BE7E73B
:102C5C001A6812F0040206D002911A6802925B689C
:102C6C000293029BDCE719680907D9D503921A680D
:102C7C0003925B680393039BD2E704B010BD000082
:102C8C0008B52520FEF7A2F9024B1868BDE80840EC
:102C9C00FEF734BF2C040020262008B5FEF796F969
:102CAC00034B586818B1BDE80840FEF727BF08BDB4
:102CBC002C040020272008B5FEF788F9034B9868F0
:102CCC0018B1BDE80840FEF719BF08BD2C04002060
:102CDC0003460A4910B508680344EFF3088293428F
:102CEC0005D90C224FF0FF30054B1A6010BD054A78
:102CFC00054C121B9342F4D20B60F7E748000020FE
:102D0C00680500200050002000040000FEE70000D1
:102D1C001622024B4FF0FF301A60704768050020F6
:102D2C00012070471148854672B6BFF34F8FBFF331
:102D3C006F8F71B6002103E00D4B5B58435004318B
:102D4C000C480D4B42189A42F6D30C4A02E0002371
:102D5C0042F8043B0A4B9A42F9D3FFF7EBFD62B6FB
:102D6C0061B600F051FB00F00FFA704700500020E4
:102D7C006C3F000800000020B8000020B8000020C4
:102D8C0070050020FEE700BE10B594B0142200219F
:102D9C000CA800F07BFB142200210DEB020000F0CC
:102DAC0075FB1022002101A800F070FB02244FF4E7
:102DBC0080330122CDE91143CDE90A234FF4E0130E
:102DCC000AA80E921393FEF797F900B1FEE70F23B2
:102DDC00CDE905344FF480630790CDE908302146E6
:102DEC0005A8FEF75FFB00B1FEE7122301934FF439
:102DFC000043CDE9033001A8FEF700FC00B1FEE76B
:102E0C0014B010BDB0F80431B0F80001181A00F07D
:102E1C003F007047B0F80431B0F800219BB29342E8
:102E2C001ABFD0F8F830985C4FF0FF30704790F82C
:102E3C000231B0F80601C0B2834227BFC3F13F0391
:102E4C00C018C01A00F1FF30704707B503688DF841
:102E5C00071001225B680DF10701984703B05DF87C
:102E6C0004FB0000B0F8722038B5436F134403F034
:102E7C003F03A0F87230B0F87220B0F86E3092B206
:102E8C0093421BD0B0F87220B0F8724095B203F1A7
:102E9C004002521B534203F03F03A4B202F03F0224
:102EAC0058BF5A42C4F140039A4228BF1A460449FB
:102EBC004267FFF765FE4FF0FF3038BD0020FCE79E
:102ECC00712E000803682DE9F0479B68044688467C
:102EDC001646984701232374D4F8E830B4F80291CD
:102EEC0001338246C9F1400904F1940708D194F8E2
:102EFC000C312BB10023384684F80C31FFF760FEFF
:102F0C00236820469B6898470028F9D035464D45E4
:102F1C0001D8554515D9D14528BFD14623684A4615
:102F2C0041465B6820469847236820469B68984733
:102F3C00B4F80221A5EB0905C8448246C2F1400948
:102F4C00E5E7B4F80221D4F8FC005319402B1044E7
:102F5C0019D82A46414600F08BFAA946B4F802313A
:102F6C0038461D4405F03F05A4F80251FFF7F6FD65
:102F7C0030B94A4638460B49C4F80891FFF700FEB1
:102F8C003046BDE8F087C2F140094A46414600F0A0
:102F9C006FFAD4F8FC00A5EB090208EB090100F06C
:102FAC0067FADBE7712E0008037C33B1B0F802211D
:102FBC00B0F806319BB29A42FAD17047C0F8EC30A7
:102FCC00009B914208BF4FF0FF31C0F8F03000F188
:102FDC001103C0F8F8300023C0E9392100F1510287
:102FEC00A0F80431C0E93F23A0F806317047000077
:102FFC00F7B54FF47A7317460022C0E901231C4B36
:10300C00044603604FF0FF33C0F8E830194B1A4EFA
:10301C009C420D46F06A05D1B36AC4F8E830C4F896
:10302C00E4000AE01549FFF75DFC854215D1B36A4F
:10303C00C4F8E830F36AC4F8E4304FF0FF33012FE2
:10304C0008BFC4F8E8302046D4E9392100934FF08A
:10305C00FF33FFF7B3FF03B0F0BD28460849FFF775
:10306C0052FC0649C4F8E8002846FFF74CFCD6E7AA
:10307C00C83E000838040020343E0008D03D00084B
:10308C00943D0008D0F8E83010B5013304460ED159
:10309C000368DB68984794F80C3143B9012304F1B9
:1030AC00940084F80C31BDE81040FFF797BD10BDBB
:1030BC0010B50446FFF7E6FFB4F80421B4F800316C
:1030CC0092B29A4217BFD4F8F8204FF0FF30D05C80
:1030DC0001331CBF03F03F03A4F8003110BD000006
:1030EC00002202490248FFF783BF00BF00380140AD
:1030FC003804002010B5044600F074F9E060236831
:10310C0020465B699847002808DA00F06BF9E36801
:10311C00C01AA3689842F2D34FF0FF3010BD2DE9CE
:10312C00F04107460C460D468E18B542A5EB040837
:10313C0007D03846FFF7DEFF031E02DB05F8013B24
:10314C00F3E74046BDE8F0812DE9F041074688469B
:10315C0016461D4673B100243846FFF7CBFF031EFD
:10316C0005DB434503D033550134A542F4D1204649
:10317C00BDE8F0811C46FAE708B50320FDF7ACFE6C
:10318C00BDE8084000F03EB908B5AFF30080FDF78C
:10319C0015F8FDF723F800F027F9FAE70346C0B25B
:1031AC00092810B51FD82B4903F4E06251F8201000
:1031BC000A43C9B222292DD8274A092852F82120BE
:1031CC001FD8244951F82000184300F4E060104344
:1031DC00421C07D1CA2B39D0CB2B41F2020018BFAD
:1031EC004FF0FF3010BD03F0C002C02AF2D1C92845
:1031FC00F0D8184903F03F0451F8241003F4E062AE
:10320C00D6E703F0C001C0291DD1C9281BD803F093
:10321C003F00D6E702F0C004C02CDBD1C929D9D8B5
:10322C000C4902F03F0251F822400B4A092852F88F
:10323C002420C7D903F0C004C02C04D1C92802D85B
:10324C0003F03F00BEE74FF4E060C0E741F201003D
:10325C00C8E700BF0C3E0008343E000891420FD076
:10326C0008D90123891A8B40984208D30130C840F1
:10327C000138704720B10130511A8840F8E700201E
:10328C007047000010B5FFF789FF431C0AD0064CAD
:10329C002168FEF77FFF054B21681A68BDE81040D6
:1032AC00FFF7DCBF002010BD4C00002050000020B8
:1032BC00C3B2222B2DE9F0410D462AD8274A00F43F
:1032CC00E06052F823400443621C44D0244EC4F303
:1032DC00031756F8273004F00F0823FA08F3DB071E
:1032EC0010D520461F49FFF719FA10B12046FEF7FA
:1032FC00D1FF012303FA08F256F8273023EA020320
:10330C0046F82730052D15D8DFE805F015211B1DD3
:10331C001F2300F0C002C02A1DD1C92B1BD8124B91
:10332C0000F03F0253F822200C4B00F4E06053F8FD
:10333C002240C8E7FEE700212046BDE8F041FFF738
:10334C00FDB91021F8E72021F6E70321F4E701216C
:10335C00F2E70921F0E7BDE8F08100BF343E000838
:10336C004C050020903B00080C3E0008C3B2222BF9
:10337C0019D8184A00F4E06052F823301843C0F30F
:10338C000313042B98BF144A00F00F0098BF52F897
:10339C002320124B88BF002253F82030C3F30F2395
:1033AC00A9B11361704700F0C002C02A0CD1C92B1F
:1033BC000AD80B4B00F03F0253F82220054B00F4C7
:1033CC00E06053F82230D9E74FF0FF30D7E7536174
:1033DC00704700BF343E0008240000203C3A00082F
:1033EC000C3E0008FEF784BF08B5044B2BB1044813
:1033FC00FFF708FD08B1AFF3008008BD0000000026
:10340C0038040020FEF7C0BF70B500260C4D0D4CE3
:10341C00641BA410A64209D100F0F4FA00260A4D50
:10342C000A4C641BA410A64205D170BD55F8043B90
:10343C0098470136EEE755F8043B98470136F2E71A
:10344C00543F0008543F0008543F0008643F0008F4
:10345C00024B0146186800F089B800BF54000020E8
:10346C00024B0146186800F019B800BF5400002048
:10347C000A44914200F1FF3300D1704710B511F8A6
:10348C00014B914203F8014FF9D110BD03460244A0
:10349C00934200D1704703F8011BF9E738B5054694
:1034AC00002940D051F8043C0C1F002BB8BFE41885
:1034BC0000F0E2F81C4A136833B9636014602846C4
:1034CC00BDE8384000F0DEB8A34208D920682118C6
:1034DC008B4201BF19685B6809182160EDE71A4639
:1034EC005B680BB1A342FAD911685018A0420BD1FA
:1034FC0020680144501883421160E0D118685B6861
:10350C00014411605360DAE702D90C232B60D6E733
:10351C00206821188B4201BF19685B68091821606B
:10352C0063605460CBE738BD6005002070B50E4E6B
:10353C000C463168054611B900F08CF83060214614
:10354C00284600F087F8431C0AD0C41C24F003045E
:10355C00A04207D0211A284600F07CF8013001D196
:10356C004FF0FF34204670BD640500202DE9F0417A
:10357C00CD1C25F0030508350C2D38BF0C25002D6E
:10358C00074601DBA94205D90C2300263B603046D7
:10359C00BDE8F0812E4E00F06FF833681C4634BB4A
:1035AC0029463846FFF7C2FF431C04464DD1346808
:1035BC002646002E40D123683146384604EB0308DA
:1035CC0000F048F880453AD1216803356D1A25F092
:1035DC00030508350C2D38BF0C2538462946FFF756
:1035EC00A5FF01302BD023682B4423600EE022680A
:1035FC00521B1ED40B2A16D96119A342256018BF81
:10360C005960636808BF316062514B60384604F101
:10361C000B0600F037F826F00706231DF21AB6D079
:10362C009B1BA350B3E76268A3420CBF32605A6085
:10363C00ECE723466468B2E734467668B9E70C23B6
:10364C0038463B6000F01EF8A1E72560DEE700BFBE
:10365C006005002038B50023054D044608462B6054
:10366C00FFF736FB431C02D12B6803B1236038BD36
:10367C0068050020704770470148FFF7FBBF00BF8B
:10368C006C0500200148FFF7F6BF00BF6C05002059
:10369C00062008B500F02CF80120FFF737FB1F2996
:1036AC0038B504460D4604D9162303604FF0FF309D
:1036BC0038BD426C12B152F821304BB9204600F0A3
:1036CC0031F82A4601462046BDE8384000F018B8CB
:1036DC00012B0AD0591C03D1162303600120E7E704
:1036EC000024284642F8254098470020E0E70000D7
:1036FC00024B01461868FFF7D2BF00BF54000020F0
:10370C0038B50023064D0446084611462B60FFF7DA
:10371C00FFFA431C02D12B6803B1236038BD00BFF4
:10372C0068050020FFF7FCBA2DE9F047089E0D460E
:10373C0004468846002B4DD18A42944668D9B2FA89
:10374C0082F252B101FA02F3C2F1200120FA01F126
:10375C000CFA02FC41EA030894404FEA1C41B8FB06
:10376C00F1F71FFA8CFE01FB178807FB0EF0230CF8
:10377C0043EA084398420AD91CEB030307F1FF35CF
:10378C0080F01E81984240F21B81023F63441B1A59
:10379C00B3FBF1F001FB103300FB0EFEA4B244EAC4
:1037AC000344A6450AD91CEB040400F1FF3380F056
:1037BC000981A64540F20681644402380021A4EB3D
:1037CC000E0440EA07401EB10023D440C6E9004372
:1037DC00BDE8F0878B4208D9002E00F0EE80002166
:1037EC00C6E900050846BDE8F087B3FA83F1002965
:1037FC004AD1AB4202D3824200F2FC80841A65EBC0
:10380C00030301209846002EE2D0C6E90048DFE70A
:10381C0002B9FFDEB2FA82F2002A40F09180A1EBED
:10382C000C0001214FEA1C471FFA8CFEB0FBF7F38A
:10383C0007FB1300250C45EA00450EFB03F0A842DC
:10384C0008D91CEB050503F1FF3802D2A84200F29F
:10385C00CE8043462D1AB5FBF7F007FB10550EFB37
:10386C0000FEA4B244EA0544A64508D91CEB0404A6
:10387C0000F1FF3502D2A64500F2B6802846A4EB33
:10388C000E0440EA03409EE7C1F120078B4022FA68
:10389C0007FC4CEA030C25FA07FA4FEA1C49BAFB61
:1038AC00F9F820FA07F309FB18AA8D401FFA8CFED1
:1038BC001D4300FA01F308FB0EF02C0C44EA0A44F9
:1038CC00A04202FA01F20BD91CEB040408F1FF3AF6
:1038DC0080F08880A04240F28580A8F10208644400
:1038EC00241AB4FBF9F009FB104400FB0EFEADB238
:1038FC0045EA0444A64508D91CEB040400F1FF3545
:10390C006CD2A6456AD90238644440EA0840A0FB50
:10391C000295A4EB0E04AC42C846AE4656D353D027
:10392C00002E69D0B3EB080264EB0E0422FA01F30B
:10393C0004FA07F71F43CC40C6E90074002147E79F
:10394C000CFA02FCC2F1200125FA01F34FEA1C47E4
:10395C0020FA01F195400D43B3FBF7F107FB11334E
:10396C001FFA8CFE280C40EA034001FB0EF3834245
:10397C0004FA02F408D91CEB000001F1FF382FD235
:10398C0083422DD902396044C01AB0FBF7F307FB10
:10399C001300ADB245EA004503FB0EF0A84208D96E
:1039AC001CEB050503F1FF3816D2A84214D9023BD3
:1039BC006544281A43EA014138E73146304607E7A7
:1039CC002F46E4E61846F9E64B45A9D2B9EB0208B6
:1039DC0065EB0C0E0138A3E74346EAE7284694E76B
:1039EC004146D1E7D0467BE76444023847E7023BC7
:1039FC0065442FE7084606E73146E9E608B5FFF7C8
:103A0C0047FE0000F8B500BFF8BC08BC9E467047E6
:0C3A1C00F8B500BFF8BC08BC9E4670471F
:103A280002030405060708090A0B0C0D0E0F1010F7
:103A38000000000001010000020200000404000070
:103A4800080800001010000020200000404000007E
:103A58008080000001000104020002040400040444
:103A6800080008041000100420002004400040044E
:103A78008000800400000000000000000102030430
:103A88000607080900000000010203040000000006
:103A9800002401400300000000010000002801404C
:103AA8000300000001000000002401400380000022
:103AB800010100000028014003800000020000000E
:103AC8000024014003000100020100000028014019
:103AD80003000100030000000024014003800100EE
:103AE80003010000002801400380010004000000D9
:103AF80000240140030002000401000000280140E6
:103B080003000200050000000024014003800200B9
:103B180005010000002801400380020006000000A3
:103B280000240140030003000601000000280140B2
:103B38000300030007000000002401400380030085
:103B48000701000000280140038003001000000066
:103B58000024014003000400100100000028014077
:103B68000300040011000000002401400380040049
:103B7800110100000028014003800400FFFFFFFF3F
:103B880000000000000000000000000000000040ED
:103B980012800000000100000000004012900000A8
:103BA80001000000000000401212010001010000A5
:103BB8000000004012100100020000000000004058
:103BC8001292010002010000000000401291010061
:103BD8000300000000000040121202000301000070
:103BE800000000401211020006000000000400401E
:103BF8001295000007000000002C0140128D1000F3
:103C08000701000000040040121501000800000030
:103C1800002C0140128E000008010000002C014019
:103C2800128D000009000000002C0140120E010056
:103C380009010000002C0140120D01000A000000DB
:103C4800002C0140128E01000A010000002C0140E6
:103C5800128D01000B000000002C0140120E020022
:103C68000B010000002C0140120D02000F000000A3
:103C780000000040129100000F0100000000004009
:103C8800128F000010000000002C0140120D1100DE
:103C9800100100000004004012950100100200000D
:103CA800000400401294010011000000002C0140A3
:103CB800128D1100110100000004004012150200CD
:103CC800110200000004004012140200130000005A
:103CD8000000004012110100130100000000004024
:103CE800120F0100140000000004004012940000AC
:103CF8001500000000040040121401001600000026
:103D0800000800401297000017000000000800405B
:103D18001217010018000000000800401297010067
:103D28001900000000080040121702001A000000E5
:103D380000000040129001001A010000000000403D
:103D4800128F01001B00000000000040121002004A
:103D58001B01000000000040120F02001D000000BF
:103D6800002C0140128E10001E000000002C0140A3
:103D7800120E11001F000000002C0140128E1100CD
:103D8800FFFFFFFF0000000000000000030000002C
:103D980000440040100800000A00000000380140FC
:103DA8001006000017000000003801401005000050
:103DB8001B0000000048004010000000FFFFFFFF4C
:103DC8000000000000000000020000000044004065
:103DD8001208000009000000003801401206000027
:103DE8001600000000380140120500001A0000000B
:103DF8000048004012000000FFFFFFFF0000000025
:103E0800000000001400000015000000160000006B
:103E18001700000018000000190000001A00000038
:103E28001B0000001C0000001D000000190000001D
:103E38001800000017000000160000001500000020
:103E480014000000130000000F0000000C00000028
:103E58000B0000000A000000090000000800000034
:103E68001F0000001E0000001D0000001C000000D4
:103E78002D0000002E0000002F00000000000000B0
:103E88000100000002000000030000000400000020
:103E980005000000060000000700000010000000F8
:103EA800110000001A0000001B00000012000000B2
:103EB8000D0000000E0000000000000000000000DF
:103EC800572E0008D12E00083B2E0008B52F0008F9
:103ED800112E0008BD300008212E00082B310008E3
:103EE800553100080000000000000000000000003C
:103EF80000000000000000000000000000000000BA
:103F080000000000000000000000000000000000A9
:103F18000000000000000000000000000000000099
:103F28000000000000000000000000000000000089
:103F38000000000000000000000000000000000079
:043F48000000000075
:083F4C00E8F7FF7F010000000F
:103F5400853100086501000831240008ED300008AF
:083F640041010008B924000826
:103F6C00002D310100000000C0C1C2C3C40605040D
:103F7C0003020D0E1100000074010020010000006E
:103F8C001000000000080140000C0140001001402E
:103F9C000014014000180140FFFFFFFF00300240F9
:103FAC00000000000024F400700500200C0000004C
:103FBC000A00000058000020000000000C3F000820
:103FCC002C3F0008EC3E0008000000000000000040
:103FDC0000000000000000000000000000000000D5
:103FEC0000000000000000000000000000000000C5
:103FFC0000000000000000000000000000000000B5
:10400C0000000000000000000000000000000000A4
:08401C0000000000000000009C
:0400000508002D3191
:00000001FF
